{
  "contractName": "UserController",
  "abi": [
    {
      "inputs": [],
      "name": "ownerAddr",
      "outputs": [
        {
          "internalType": "address",
          "name": "",
          "type": "address"
        }
      ],
      "stateMutability": "view",
      "type": "function",
      "constant": true
    },
    {
      "inputs": [
        {
          "internalType": "address",
          "name": "_managerAddr",
          "type": "address"
        }
      ],
      "name": "setManagerAddr",
      "outputs": [],
      "stateMutability": "nonpayable",
      "type": "function"
    },
    {
      "inputs": [
        {
          "internalType": "address",
          "name": "_newOwner",
          "type": "address"
        }
      ],
      "name": "transferOwnership",
      "outputs": [],
      "stateMutability": "nonpayable",
      "type": "function"
    },
    {
      "inputs": [
        {
          "internalType": "string",
          "name": "_username",
          "type": "string"
        },
        {
          "internalType": "string",
          "name": "_lastName",
          "type": "string"
        },
        {
          "internalType": "string",
          "name": "_firstName",
          "type": "string"
        },
        {
          "internalType": "string",
          "name": "_bio",
          "type": "string"
        },
        {
          "internalType": "string",
          "name": "_gravatarEmail",
          "type": "string"
        }
      ],
      "name": "createUser",
      "outputs": [
        {
          "internalType": "uint256",
          "name": "",
          "type": "uint256"
        }
      ],
      "stateMutability": "nonpayable",
      "type": "function"
    }
  ],
  "bytecode": "0x608060405234801561001057600080fd5b50336000806101000a81548173ffffffffffffffffffffffffffffffffffffffff021916908373ffffffffffffffffffffffffffffffffffffffff160217905550610aa6806100606000396000f3fe608060405234801561001057600080fd5b506004361061004c5760003560e01c806365c06f70146100515780637978b231146100815780639c675eaa1461009d578063f2fde38b146100bb575b600080fd5b61006b6004803603810190610066919061064b565b6100d7565b604051610078919061076b565b60405180910390f35b61009b600480360381019061009691906107e4565b61035c565b005b6100a56103f8565b6040516100b29190610820565b60405180910390f35b6100d560048036038101906100d091906107e4565b61041c565b005b600080600160009054906101000a900473ffffffffffffffffffffffffffffffffffffffff16905060008173ffffffffffffffffffffffffffffffffffffffff1663bf40fac16040518163ffffffff1660e01b815260040161013890610898565b60206040518083038186803b15801561015057600080fd5b505afa158015610164573d6000803e3d6000fd5b505050506040513d601f19601f8201168201806040525081019061018891906108cd565b9050600081905060008173ffffffffffffffffffffffffffffffffffffffff166382d38954336040518263ffffffff1660e01b81526004016101ca9190610820565b60206040518083038186803b1580156101e257600080fd5b505afa1580156101f6573d6000803e3d6000fd5b505050506040513d601f19601f8201168201806040525081019061021a9190610926565b1461022457600080fd5b60008173ffffffffffffffffffffffffffffffffffffffff1663aaee301f8b6040518263ffffffff1660e01b815260040161025f91906109ca565b60206040518083038186803b15801561027757600080fd5b505afa15801561028b573d6000803e3d6000fd5b505050506040513d601f19601f820116820180604052508101906102af9190610926565b146102b957600080fd5b8073ffffffffffffffffffffffffffffffffffffffff1663a377d18f338b8a8c8b8b6040518763ffffffff1660e01b81526004016102fc969594939291906109ec565b602060405180830381600087803b15801561031657600080fd5b505af115801561032a573d6000803e3d6000fd5b505050506040513d601f19601f8201168201806040525081019061034e9190610926565b935050505095945050505050565b60008054906101000a900473ffffffffffffffffffffffffffffffffffffffff1673ffffffffffffffffffffffffffffffffffffffff163373ffffffffffffffffffffffffffffffffffffffff16146103b457600080fd5b80600160006101000a81548173ffffffffffffffffffffffffffffffffffffffff021916908373ffffffffffffffffffffffffffffffffffffffff16021790555050565b60008054906101000a900473ffffffffffffffffffffffffffffffffffffffff1681565b60008054906101000a900473ffffffffffffffffffffffffffffffffffffffff1673ffffffffffffffffffffffffffffffffffffffff163373ffffffffffffffffffffffffffffffffffffffff161461047457600080fd5b600073ffffffffffffffffffffffffffffffffffffffff168173ffffffffffffffffffffffffffffffffffffffff1614156104ae57600080fd5b806000806101000a81548173ffffffffffffffffffffffffffffffffffffffff021916908373ffffffffffffffffffffffffffffffffffffffff16021790555050565b6000604051905090565b600080fd5b600080fd5b600080fd5b600080fd5b6000601f19601f8301169050919050565b7f4e487b7100000000000000000000000000000000000000000000000000000000600052604160045260246000fd5b6105588261050f565b810181811067ffffffffffffffff8211171561057757610576610520565b5b80604052505050565b600061058a6104f1565b9050610596828261054f565b919050565b600067ffffffffffffffff8211156105b6576105b5610520565b5b6105bf8261050f565b9050602081019050919050565b82818337600083830152505050565b60006105ee6105e98461059b565b610580565b90508281526020810184848401111561060a5761060961050a565b5b6106158482856105cc565b509392505050565b600082601f83011261063257610631610505565b5b81356106428482602086016105db565b91505092915050565b600080600080600060a08688031215610667576106666104fb565b5b600086013567ffffffffffffffff81111561068557610684610500565b5b6106918882890161061d565b955050602086013567ffffffffffffffff8111156106b2576106b1610500565b5b6106be8882890161061d565b945050604086013567ffffffffffffffff8111156106df576106de610500565b5b6106eb8882890161061d565b935050606086013567ffffffffffffffff81111561070c5761070b610500565b5b6107188882890161061d565b925050608086013567ffffffffffffffff81111561073957610738610500565b5b6107458882890161061d565b9150509295509295909350565b6000819050919050565b61076581610752565b82525050565b6000602082019050610780600083018461075c565b92915050565b600073ffffffffffffffffffffffffffffffffffffffff82169050919050565b60006107b182610786565b9050919050565b6107c1816107a6565b81146107cc57600080fd5b50565b6000813590506107de816107b8565b92915050565b6000602082840312156107fa576107f96104fb565b5b6000610808848285016107cf565b91505092915050565b61081a816107a6565b82525050565b60006020820190506108356000830184610811565b92915050565b600082825260208201905092915050565b7f5573657253746f72616765000000000000000000000000000000000000000000600082015250565b6000610882600b8361083b565b915061088d8261084c565b602082019050919050565b600060208201905081810360008301526108b181610875565b9050919050565b6000815190506108c7816107b8565b92915050565b6000602082840312156108e3576108e26104fb565b5b60006108f1848285016108b8565b91505092915050565b61090381610752565b811461090e57600080fd5b50565b600081519050610920816108fa565b92915050565b60006020828403121561093c5761093b6104fb565b5b600061094a84828501610911565b91505092915050565b600081519050919050565b60005b8381101561097c578082015181840152602081019050610961565b8381111561098b576000848401525b50505050565b600061099c82610953565b6109a6818561083b565b93506109b681856020860161095e565b6109bf8161050f565b840191505092915050565b600060208201905081810360008301526109e48184610991565b905092915050565b600060c082019050610a016000830189610811565b8181036020830152610a138188610991565b90508181036040830152610a278187610991565b90508181036060830152610a3b8186610991565b90508181036080830152610a4f8185610991565b905081810360a0830152610a638184610991565b905097965050505050505056fea264697066735822122094fdf89486f0d73a0552d4433a63eb6e912152e35da865f6dfde5eb133e1637964736f6c63430008090033",
  "immutableReferences": {},
  "source": "//SPDX-License-Identifier:MIT\r\n\r\npragma solidity ^0.8.9;\r\n\r\nimport '../helpers/BaseController.sol';\r\nimport '../ContractManager.sol';\r\nimport './UserStorage.sol';\r\n\r\ncontract UserController is BaseController{\r\n    \r\n  function createUser(\r\n    string memory  _username, \r\n    string memory _lastName,\r\n    string memory _firstName, \r\n    string memory _bio,\r\n    string memory _gravatarEmail\r\n  ) public returns(uint) {\r\n    ContractManager _manager = ContractManager(managerAddr);\r\n\r\n    address _userStorageAddr = _manager.getAddress(\"UserStorage\");\r\n    UserStorage _storage = UserStorage(_userStorageAddr); \r\n\r\n    require(_storage.addresses(msg.sender) == 0);\r\n    require(_storage.usernames(_username) == 0);\r\n    \r\n\r\n    return _storage.createUser(\r\n      msg.sender,\r\n      _username, \r\n      _firstName, \r\n      _lastName, \r\n      _bio,\r\n      _gravatarEmail\r\n    );\r\n  }\r\n}",
  "sourcePath": "D:\\tweet-chain\\contracts\\users\\UserController.sol",
  "compiler": {
    "name": "solc",
    "version": "0.8.9+commit.e5eed63a.Emscripten.clang"
  },
  "schemaVersion": "3.4.3",
  "updatedAt": "2022-05-02T09:21:38.114Z",
  "networkType": "ethereum",
  "devdoc": {
    "kind": "dev",
    "methods": {},
    "version": 1
  },
  "userdoc": {
    "kind": "user",
    "methods": {},
    "version": 1
  }
}