{
  "contractName": "UserStorage",
  "abi": [
    {
      "inputs": [
        {
          "internalType": "address",
          "name": "",
          "type": "address"
        }
      ],
      "name": "addresses",
      "outputs": [
        {
          "internalType": "uint256",
          "name": "",
          "type": "uint256"
        }
      ],
      "stateMutability": "view",
      "type": "function"
    },
    {
      "inputs": [],
      "name": "controllerAddr",
      "outputs": [
        {
          "internalType": "address",
          "name": "",
          "type": "address"
        }
      ],
      "stateMutability": "view",
      "type": "function"
    },
    {
      "inputs": [],
      "name": "ownerAddr",
      "outputs": [
        {
          "internalType": "address",
          "name": "",
          "type": "address"
        }
      ],
      "stateMutability": "view",
      "type": "function"
    },
    {
      "inputs": [
        {
          "internalType": "uint256",
          "name": "",
          "type": "uint256"
        }
      ],
      "name": "profiles",
      "outputs": [
        {
          "internalType": "uint256",
          "name": "id",
          "type": "uint256"
        },
        {
          "internalType": "string",
          "name": "username",
          "type": "string"
        },
        {
          "internalType": "string",
          "name": "firstName",
          "type": "string"
        },
        {
          "internalType": "string",
          "name": "lastName",
          "type": "string"
        },
        {
          "internalType": "string",
          "name": "bio",
          "type": "string"
        },
        {
          "internalType": "string",
          "name": "gravatarEmail",
          "type": "string"
        }
      ],
      "stateMutability": "view",
      "type": "function"
    },
    {
      "inputs": [
        {
          "internalType": "address",
          "name": "_controllerAddr",
          "type": "address"
        }
      ],
      "name": "setControllerAddr",
      "outputs": [],
      "stateMutability": "nonpayable",
      "type": "function"
    },
    {
      "inputs": [
        {
          "internalType": "address",
          "name": "_newOwner",
          "type": "address"
        }
      ],
      "name": "transferOwnership",
      "outputs": [],
      "stateMutability": "nonpayable",
      "type": "function"
    },
    {
      "inputs": [
        {
          "internalType": "string",
          "name": "",
          "type": "string"
        }
      ],
      "name": "usernames",
      "outputs": [
        {
          "internalType": "uint256",
          "name": "",
          "type": "uint256"
        }
      ],
      "stateMutability": "view",
      "type": "function"
    },
    {
      "inputs": [
        {
          "internalType": "address",
          "name": "_address",
          "type": "address"
        },
        {
          "internalType": "string",
          "name": "_username",
          "type": "string"
        },
        {
          "internalType": "string",
          "name": "_firstName",
          "type": "string"
        },
        {
          "internalType": "string",
          "name": "_lastName",
          "type": "string"
        },
        {
          "internalType": "string",
          "name": "_bio",
          "type": "string"
        },
        {
          "internalType": "string",
          "name": "_gravatarEmail",
          "type": "string"
        }
      ],
      "name": "createUser",
      "outputs": [
        {
          "internalType": "uint256",
          "name": "",
          "type": "uint256"
        }
      ],
      "stateMutability": "nonpayable",
      "type": "function"
    }
  ],
  "bytecode": "0x6080604052600060055534801561001557600080fd5b50336000806101000a81548173ffffffffffffffffffffffffffffffffffffffff021916908373ffffffffffffffffffffffffffffffffffffffff160217905550610f8a806100656000396000f3fe608060405234801561001057600080fd5b50600436106100885760003560e01c8063aaee301f1161005b578063aaee301f14610127578063c36fe3d614610157578063ee255c571461018c578063f2fde38b146101aa57610088565b80636981fa7d1461008d57806382d38954146100a95780639c675eaa146100d9578063a377d18f146100f7575b600080fd5b6100a760048036038101906100a29190610990565b6101c6565b005b6100c360048036038101906100be9190610990565b610262565b6040516100d091906109d6565b60405180910390f35b6100e161027a565b6040516100ee9190610a00565b60405180910390f35b610111600480360381019061010c9190610b61565b61029e565b60405161011e91906109d6565b60405180910390f35b610141600480360381019061013c9190610c7a565b61046e565b60405161014e91906109d6565b60405180910390f35b610171600480360381019061016c9190610cef565b61049c565b60405161018396959493929190610da4565b60405180910390f35b610194610780565b6040516101a19190610a00565b60405180910390f35b6101c460048036038101906101bf9190610990565b6107a6565b005b60008054906101000a900473ffffffffffffffffffffffffffffffffffffffff1673ffffffffffffffffffffffffffffffffffffffff163373ffffffffffffffffffffffffffffffffffffffff161461021e57600080fd5b80600160006101000a81548173ffffffffffffffffffffffffffffffffffffffff021916908373ffffffffffffffffffffffffffffffffffffffff16021790555050565b60036020528060005260406000206000915090505481565b60008054906101000a900473ffffffffffffffffffffffffffffffffffffffff1681565b6000600160009054906101000a900473ffffffffffffffffffffffffffffffffffffffff1673ffffffffffffffffffffffffffffffffffffffff163373ffffffffffffffffffffffffffffffffffffffff16146102fa57600080fd5b6005600081548092919061030d90610e57565b91905055506040518060c0016040528060055481526020018781526020018681526020018581526020018481526020018381525060026000600554815260200190815260200160002060008201518160000155602082015181600101908051906020019061037c92919061087b565b50604082015181600201908051906020019061039992919061087b565b5060608201518160030190805190602001906103b692919061087b565b5060808201518160040190805190602001906103d392919061087b565b5060a08201518160050190805190602001906103f092919061087b565b50905050600554600360008973ffffffffffffffffffffffffffffffffffffffff1673ffffffffffffffffffffffffffffffffffffffff1681526020019081526020016000208190555060055460048760405161044d9190610edc565b90815260200160405180910390208190555060055490509695505050505050565b6004818051602081018201805184825260208301602085012081835280955050505050506000915090505481565b60026020528060005260406000206000915090508060000154908060010180546104c590610f22565b80601f01602080910402602001604051908101604052809291908181526020018280546104f190610f22565b801561053e5780601f106105135761010080835404028352916020019161053e565b820191906000526020600020905b81548152906001019060200180831161052157829003601f168201915b50505050509080600201805461055390610f22565b80601f016020809104026020016040519081016040528092919081815260200182805461057f90610f22565b80156105cc5780601f106105a1576101008083540402835291602001916105cc565b820191906000526020600020905b8154815290600101906020018083116105af57829003601f168201915b5050505050908060030180546105e190610f22565b80601f016020809104026020016040519081016040528092919081815260200182805461060d90610f22565b801561065a5780601f1061062f5761010080835404028352916020019161065a565b820191906000526020600020905b81548152906001019060200180831161063d57829003601f168201915b50505050509080600401805461066f90610f22565b80601f016020809104026020016040519081016040528092919081815260200182805461069b90610f22565b80156106e85780601f106106bd576101008083540402835291602001916106e8565b820191906000526020600020905b8154815290600101906020018083116106cb57829003601f168201915b5050505050908060050180546106fd90610f22565b80601f016020809104026020016040519081016040528092919081815260200182805461072990610f22565b80156107765780601f1061074b57610100808354040283529160200191610776565b820191906000526020600020905b81548152906001019060200180831161075957829003601f168201915b5050505050905086565b600160009054906101000a900473ffffffffffffffffffffffffffffffffffffffff1681565b60008054906101000a900473ffffffffffffffffffffffffffffffffffffffff1673ffffffffffffffffffffffffffffffffffffffff163373ffffffffffffffffffffffffffffffffffffffff16146107fe57600080fd5b600073ffffffffffffffffffffffffffffffffffffffff168173ffffffffffffffffffffffffffffffffffffffff16141561083857600080fd5b806000806101000a81548173ffffffffffffffffffffffffffffffffffffffff021916908373ffffffffffffffffffffffffffffffffffffffff16021790555050565b82805461088790610f22565b90600052602060002090601f0160209004810192826108a957600085556108f0565b82601f106108c257805160ff19168380011785556108f0565b828001600101855582156108f0579182015b828111156108ef5782518255916020019190600101906108d4565b5b5090506108fd9190610901565b5090565b5b8082111561091a576000816000905550600101610902565b5090565b6000604051905090565b600080fd5b600080fd5b600073ffffffffffffffffffffffffffffffffffffffff82169050919050565b600061095d82610932565b9050919050565b61096d81610952565b811461097857600080fd5b50565b60008135905061098a81610964565b92915050565b6000602082840312156109a6576109a5610928565b5b60006109b48482850161097b565b91505092915050565b6000819050919050565b6109d0816109bd565b82525050565b60006020820190506109eb60008301846109c7565b92915050565b6109fa81610952565b82525050565b6000602082019050610a1560008301846109f1565b92915050565b600080fd5b600080fd5b6000601f19601f8301169050919050565b7f4e487b7100000000000000000000000000000000000000000000000000000000600052604160045260246000fd5b610a6e82610a25565b810181811067ffffffffffffffff82111715610a8d57610a8c610a36565b5b80604052505050565b6000610aa061091e565b9050610aac8282610a65565b919050565b600067ffffffffffffffff821115610acc57610acb610a36565b5b610ad582610a25565b9050602081019050919050565b82818337600083830152505050565b6000610b04610aff84610ab1565b610a96565b905082815260208101848484011115610b2057610b1f610a20565b5b610b2b848285610ae2565b509392505050565b600082601f830112610b4857610b47610a1b565b5b8135610b58848260208601610af1565b91505092915050565b60008060008060008060c08789031215610b7e57610b7d610928565b5b6000610b8c89828a0161097b565b965050602087013567ffffffffffffffff811115610bad57610bac61092d565b5b610bb989828a01610b33565b955050604087013567ffffffffffffffff811115610bda57610bd961092d565b5b610be689828a01610b33565b945050606087013567ffffffffffffffff811115610c0757610c0661092d565b5b610c1389828a01610b33565b935050608087013567ffffffffffffffff811115610c3457610c3361092d565b5b610c4089828a01610b33565b92505060a087013567ffffffffffffffff811115610c6157610c6061092d565b5b610c6d89828a01610b33565b9150509295509295509295565b600060208284031215610c9057610c8f610928565b5b600082013567ffffffffffffffff811115610cae57610cad61092d565b5b610cba84828501610b33565b91505092915050565b610ccc816109bd565b8114610cd757600080fd5b50565b600081359050610ce981610cc3565b92915050565b600060208284031215610d0557610d04610928565b5b6000610d1384828501610cda565b91505092915050565b600081519050919050565b600082825260208201905092915050565b60005b83811015610d56578082015181840152602081019050610d3b565b83811115610d65576000848401525b50505050565b6000610d7682610d1c565b610d808185610d27565b9350610d90818560208601610d38565b610d9981610a25565b840191505092915050565b600060c082019050610db960008301896109c7565b8181036020830152610dcb8188610d6b565b90508181036040830152610ddf8187610d6b565b90508181036060830152610df38186610d6b565b90508181036080830152610e078185610d6b565b905081810360a0830152610e1b8184610d6b565b9050979650505050505050565b7f4e487b7100000000000000000000000000000000000000000000000000000000600052601160045260246000fd5b6000610e62826109bd565b91507fffffffffffffffffffffffffffffffffffffffffffffffffffffffffffffffff821415610e9557610e94610e28565b5b600182019050919050565b600081905092915050565b6000610eb682610d1c565b610ec08185610ea0565b9350610ed0818560208601610d38565b80840191505092915050565b6000610ee88284610eab565b915081905092915050565b7f4e487b7100000000000000000000000000000000000000000000000000000000600052602260045260246000fd5b60006002820490506001821680610f3a57607f821691505b60208210811415610f4e57610f4d610ef3565b5b5091905056fea2646970667358221220083894ae90cfee0764d18354cf79907b3528f84ee828a028660dc3af22a1426564736f6c63430008090033",
  "immutableReferences": {},
  "source": "//SPDX-License-Identifier:MIT\r\n\r\npragma solidity ^0.8.9;\r\n\r\nimport '../helpers/BaseStorage.sol';\r\n\r\ncontract  UserStorage is BaseStorage{\r\n\r\n    struct Profile{\r\n        uint id;\r\n        string username;\r\n        string firstName;\r\n        string lastName;\r\n        string bio;\r\n        string gravatarEmail;\r\n    }\r\n\r\n    mapping(uint => Profile) public profiles;\r\n    mapping (address => uint) public addresses; \r\n    mapping (string => uint) public usernames;\r\n    uint latestUserId = 0;\r\n\r\n    function createUser(\r\n    address _address,\r\n    string memory _username,\r\n    string memory _firstName,\r\n    string memory _lastName,\r\n    string memory _bio,\r\n    string memory _gravatarEmail\r\n  ) public onlyController returns(uint) {\r\n    latestUserId++;  \r\n\r\n    profiles[latestUserId] = Profile(\r\n      latestUserId, \r\n      _username,\r\n      _firstName,\r\n      _lastName,\r\n      _bio,\r\n      _gravatarEmail\r\n    );\r\n\r\n    addresses[_address] = latestUserId;\r\n    usernames[_username] = latestUserId;\r\n\r\n    return latestUserId;\r\n  }\r\n}",
  "sourcePath": "D:\\tweet-chain\\contracts\\users\\UserStorage.sol",
  "compiler": {
    "name": "solc",
    "version": "0.8.9+commit.e5eed63a.Emscripten.clang"
  },
  "schemaVersion": "3.4.3",
  "updatedAt": "2022-05-01T08:03:48.506Z",
  "devdoc": {
    "kind": "dev",
    "methods": {},
    "version": 1
  },
  "userdoc": {
    "kind": "user",
    "methods": {},
    "version": 1
  }
}