{
  "contractName": "TweetController",
  "abi": [
    {
      "inputs": [],
      "name": "ownerAddr",
      "outputs": [
        {
          "internalType": "address",
          "name": "",
          "type": "address"
        }
      ],
      "stateMutability": "view",
      "type": "function"
    },
    {
      "inputs": [
        {
          "internalType": "address",
          "name": "_managerAddr",
          "type": "address"
        }
      ],
      "name": "setManagerAddr",
      "outputs": [],
      "stateMutability": "nonpayable",
      "type": "function"
    },
    {
      "inputs": [
        {
          "internalType": "address",
          "name": "_newOwner",
          "type": "address"
        }
      ],
      "name": "transferOwnership",
      "outputs": [],
      "stateMutability": "nonpayable",
      "type": "function"
    },
    {
      "inputs": [
        {
          "internalType": "uint256",
          "name": "_userId",
          "type": "uint256"
        },
        {
          "internalType": "string",
          "name": "_text",
          "type": "string"
        }
      ],
      "name": "createTweet",
      "outputs": [
        {
          "internalType": "uint256",
          "name": "",
          "type": "uint256"
        }
      ],
      "stateMutability": "nonpayable",
      "type": "function"
    }
  ],
  "bytecode": "0x608060405234801561001057600080fd5b50336000806101000a81548173ffffffffffffffffffffffffffffffffffffffff021916908373ffffffffffffffffffffffffffffffffffffffff160217905550610865806100606000396000f3fe608060405234801561001057600080fd5b506004361061004c5760003560e01c80637978b231146100515780637cc82f201461006d5780639c675eaa1461009d578063f2fde38b146100bb575b600080fd5b61006b6004803603810190610066919061042e565b6100d7565b005b610087600480360381019061008291906105d7565b610173565b6040516100949190610642565b60405180910390f35b6100a56102c3565b6040516100b2919061066c565b60405180910390f35b6100d560048036038101906100d0919061042e565b6102e7565b005b60008054906101000a900473ffffffffffffffffffffffffffffffffffffffff1673ffffffffffffffffffffffffffffffffffffffff163373ffffffffffffffffffffffffffffffffffffffff161461012f57600080fd5b80600160006101000a81548173ffffffffffffffffffffffffffffffffffffffff021916908373ffffffffffffffffffffffffffffffffffffffff16021790555050565b600080600160009054906101000a900473ffffffffffffffffffffffffffffffffffffffff16905060008173ffffffffffffffffffffffffffffffffffffffff1663bf40fac16040518163ffffffff1660e01b81526004016101d4906106e4565b60206040518083038186803b1580156101ec57600080fd5b505afa158015610200573d6000803e3d6000fd5b505050506040513d601f19601f820116820180604052508101906102249190610719565b905060008190508073ffffffffffffffffffffffffffffffffffffffff16637cc82f2087876040518363ffffffff1660e01b81526004016102669291906107bd565b602060405180830381600087803b15801561028057600080fd5b505af1158015610294573d6000803e3d6000fd5b505050506040513d601f19601f820116820180604052508101906102b89190610802565b935050505092915050565b60008054906101000a900473ffffffffffffffffffffffffffffffffffffffff1681565b60008054906101000a900473ffffffffffffffffffffffffffffffffffffffff1673ffffffffffffffffffffffffffffffffffffffff163373ffffffffffffffffffffffffffffffffffffffff161461033f57600080fd5b600073ffffffffffffffffffffffffffffffffffffffff168173ffffffffffffffffffffffffffffffffffffffff16141561037957600080fd5b806000806101000a81548173ffffffffffffffffffffffffffffffffffffffff021916908373ffffffffffffffffffffffffffffffffffffffff16021790555050565b6000604051905090565b600080fd5b600080fd5b600073ffffffffffffffffffffffffffffffffffffffff82169050919050565b60006103fb826103d0565b9050919050565b61040b816103f0565b811461041657600080fd5b50565b60008135905061042881610402565b92915050565b600060208284031215610444576104436103c6565b5b600061045284828501610419565b91505092915050565b6000819050919050565b61046e8161045b565b811461047957600080fd5b50565b60008135905061048b81610465565b92915050565b600080fd5b600080fd5b6000601f19601f8301169050919050565b7f4e487b7100000000000000000000000000000000000000000000000000000000600052604160045260246000fd5b6104e48261049b565b810181811067ffffffffffffffff82111715610503576105026104ac565b5b80604052505050565b60006105166103bc565b905061052282826104db565b919050565b600067ffffffffffffffff821115610542576105416104ac565b5b61054b8261049b565b9050602081019050919050565b82818337600083830152505050565b600061057a61057584610527565b61050c565b90508281526020810184848401111561059657610595610496565b5b6105a1848285610558565b509392505050565b600082601f8301126105be576105bd610491565b5b81356105ce848260208601610567565b91505092915050565b600080604083850312156105ee576105ed6103c6565b5b60006105fc8582860161047c565b925050602083013567ffffffffffffffff81111561061d5761061c6103cb565b5b610629858286016105a9565b9150509250929050565b61063c8161045b565b82525050565b60006020820190506106576000830184610633565b92915050565b610666816103f0565b82525050565b6000602082019050610681600083018461065d565b92915050565b600082825260208201905092915050565b7f547765657453746f726167650000000000000000000000000000000000000000600082015250565b60006106ce600c83610687565b91506106d982610698565b602082019050919050565b600060208201905081810360008301526106fd816106c1565b9050919050565b60008151905061071381610402565b92915050565b60006020828403121561072f5761072e6103c6565b5b600061073d84828501610704565b91505092915050565b600081519050919050565b60005b8381101561076f578082015181840152602081019050610754565b8381111561077e576000848401525b50505050565b600061078f82610746565b6107998185610687565b93506107a9818560208601610751565b6107b28161049b565b840191505092915050565b60006040820190506107d26000830185610633565b81810360208301526107e48184610784565b90509392505050565b6000815190506107fc81610465565b92915050565b600060208284031215610818576108176103c6565b5b6000610826848285016107ed565b9150509291505056fea2646970667358221220898bf25fe6f6da0483421000f0788bb295d282ad2125f611d68b72636e56dd6e64736f6c63430008090033",
  "immutableReferences": {},
  "source": "//SPDX-License-Identifier:MIT\r\n\r\npragma solidity ^0.8.9;\r\n\r\nimport '../helpers/BaseController.sol';\r\nimport '../ContractManager.sol';\r\nimport './TweetStorage.sol';\r\n\r\ncontract TweetController is BaseController {\r\n    function createTweet(uint _userId,string memory _text)public returns(uint){\r\n        ContractManager _manager = ContractManager(managerAddr);\r\n\r\n        address _tweetStorageAddr  = _manager.getAddress(\"TweetStorage\");\r\n        TweetStorage _tweetStorage = TweetStorage(_tweetStorageAddr);\r\n\r\n        return _tweetStorage.createTweet(_userId, _text);\r\n    }\r\n}",
  "sourcePath": "D:\\tweet-chain\\contracts\\tweets\\TweetController.sol",
  "compiler": {
    "name": "solc",
    "version": "0.8.9+commit.e5eed63a.Emscripten.clang"
  },
  "schemaVersion": "3.4.3",
  "updatedAt": "2022-04-28T12:02:27.415Z",
  "devdoc": {
    "kind": "dev",
    "methods": {},
    "version": 1
  },
  "userdoc": {
    "kind": "user",
    "methods": {},
    "version": 1
  }
}