{
  "contractName": "UserStorage",
  "abi": [
    {
      "inputs": [
        {
          "internalType": "address",
          "name": "",
          "type": "address"
        }
      ],
      "name": "addresses",
      "outputs": [
        {
          "internalType": "uint256",
          "name": "",
          "type": "uint256"
        }
      ],
      "stateMutability": "view",
      "type": "function"
    },
    {
      "inputs": [],
      "name": "controllerAddr",
      "outputs": [
        {
          "internalType": "address",
          "name": "",
          "type": "address"
        }
      ],
      "stateMutability": "view",
      "type": "function"
    },
    {
      "inputs": [],
      "name": "ownerAddr",
      "outputs": [
        {
          "internalType": "address",
          "name": "",
          "type": "address"
        }
      ],
      "stateMutability": "view",
      "type": "function"
    },
    {
      "inputs": [
        {
          "internalType": "uint256",
          "name": "",
          "type": "uint256"
        }
      ],
      "name": "profiles",
      "outputs": [
        {
          "internalType": "uint256",
          "name": "id",
          "type": "uint256"
        },
        {
          "internalType": "bytes32",
          "name": "username",
          "type": "bytes32"
        },
        {
          "internalType": "bytes32",
          "name": "firstName",
          "type": "bytes32"
        },
        {
          "internalType": "bytes32",
          "name": "lastName",
          "type": "bytes32"
        },
        {
          "internalType": "string",
          "name": "bio",
          "type": "string"
        },
        {
          "internalType": "string",
          "name": "gravatarEmail",
          "type": "string"
        }
      ],
      "stateMutability": "view",
      "type": "function"
    },
    {
      "inputs": [
        {
          "internalType": "address",
          "name": "_controllerAddr",
          "type": "address"
        }
      ],
      "name": "setControllerAddr",
      "outputs": [],
      "stateMutability": "nonpayable",
      "type": "function"
    },
    {
      "inputs": [
        {
          "internalType": "address",
          "name": "_newOwner",
          "type": "address"
        }
      ],
      "name": "transferOwnership",
      "outputs": [],
      "stateMutability": "nonpayable",
      "type": "function"
    },
    {
      "inputs": [
        {
          "internalType": "bytes32",
          "name": "",
          "type": "bytes32"
        }
      ],
      "name": "usernames",
      "outputs": [
        {
          "internalType": "uint256",
          "name": "",
          "type": "uint256"
        }
      ],
      "stateMutability": "view",
      "type": "function"
    },
    {
      "inputs": [
        {
          "internalType": "bytes32",
          "name": "name",
          "type": "bytes32"
        }
      ],
      "name": "mapSetter",
      "outputs": [
        {
          "internalType": "bool",
          "name": "",
          "type": "bool"
        }
      ],
      "stateMutability": "nonpayable",
      "type": "function"
    },
    {
      "inputs": [
        {
          "internalType": "address",
          "name": "_address",
          "type": "address"
        },
        {
          "internalType": "bytes32",
          "name": "_username",
          "type": "bytes32"
        },
        {
          "internalType": "bytes32",
          "name": "_firstName",
          "type": "bytes32"
        },
        {
          "internalType": "bytes32",
          "name": "_lastName",
          "type": "bytes32"
        },
        {
          "internalType": "string",
          "name": "_bio",
          "type": "string"
        },
        {
          "internalType": "string",
          "name": "_gravatarEmail",
          "type": "string"
        }
      ],
      "name": "createUser",
      "outputs": [
        {
          "internalType": "uint256",
          "name": "",
          "type": "uint256"
        }
      ],
      "stateMutability": "nonpayable",
      "type": "function"
    }
  ],
  "bytecode": "0x6080604052600060055534801561001557600080fd5b50336000806101000a81548173ffffffffffffffffffffffffffffffffffffffff021916908373ffffffffffffffffffffffffffffffffffffffff160217905550610d7d806100656000396000f3fe608060405234801561001057600080fd5b50600436106100935760003560e01c8063c36fe3d611610066578063c36fe3d614610132578063d399e63d14610167578063ec4d88d714610197578063ee255c57146101c7578063f2fde38b146101e557610093565b80636981fa7d1461009857806382d38954146100b45780639c675eaa146100e45780639dfbfa8714610102575b600080fd5b6100b260048036038101906100ad91906107e0565b610201565b005b6100ce60048036038101906100c991906107e0565b61029d565b6040516100db9190610826565b60405180910390f35b6100ec6102b5565b6040516100f99190610850565b60405180910390f35b61011c600480360381019061011791906108a1565b6102d9565b60405161012991906108e9565b60405180910390f35b61014c60048036038101906101479190610930565b6102e0565b60405161015e96959493929190610a05565b60405180910390f35b610181600480360381019061017c9190610ba9565b61042c565b60405161018e9190610826565b60405180910390f35b6101b160048036038101906101ac91906108a1565b6105b8565b6040516101be9190610826565b60405180910390f35b6101cf6105d0565b6040516101dc9190610850565b60405180910390f35b6101ff60048036038101906101fa91906107e0565b6105f6565b005b60008054906101000a900473ffffffffffffffffffffffffffffffffffffffff1673ffffffffffffffffffffffffffffffffffffffff163373ffffffffffffffffffffffffffffffffffffffff161461025957600080fd5b80600160006101000a81548173ffffffffffffffffffffffffffffffffffffffff021916908373ffffffffffffffffffffffffffffffffffffffff16021790555050565b60036020528060005260406000206000915090505481565b60008054906101000a900473ffffffffffffffffffffffffffffffffffffffff1681565b6000919050565b600260205280600052604060002060009150905080600001549080600101549080600201549080600301549080600401805461031b90610c9d565b80601f016020809104026020016040519081016040528092919081815260200182805461034790610c9d565b80156103945780601f1061036957610100808354040283529160200191610394565b820191906000526020600020905b81548152906001019060200180831161037757829003601f168201915b5050505050908060050180546103a990610c9d565b80601f01602080910402602001604051908101604052809291908181526020018280546103d590610c9d565b80156104225780601f106103f757610100808354040283529160200191610422565b820191906000526020600020905b81548152906001019060200180831161040557829003601f168201915b5050505050905086565b6000600160009054906101000a900473ffffffffffffffffffffffffffffffffffffffff1673ffffffffffffffffffffffffffffffffffffffff163373ffffffffffffffffffffffffffffffffffffffff161461048857600080fd5b6005600081548092919061049b90610cfe565b91905055506040518060c001604052806005548152602001878152602001868152602001858152602001848152602001838152506002600060055481526020019081526020016000206000820151816000015560208201518160010155604082015181600201556060820151816003015560808201518160040190805190602001906105289291906106cb565b5060a08201518160050190805190602001906105459291906106cb565b50905050600554600360008973ffffffffffffffffffffffffffffffffffffffff1673ffffffffffffffffffffffffffffffffffffffff16815260200190815260200160002081905550600554600460008881526020019081526020016000208190555060055490509695505050505050565b60046020528060005260406000206000915090505481565b600160009054906101000a900473ffffffffffffffffffffffffffffffffffffffff1681565b60008054906101000a900473ffffffffffffffffffffffffffffffffffffffff1673ffffffffffffffffffffffffffffffffffffffff163373ffffffffffffffffffffffffffffffffffffffff161461064e57600080fd5b600073ffffffffffffffffffffffffffffffffffffffff168173ffffffffffffffffffffffffffffffffffffffff16141561068857600080fd5b806000806101000a81548173ffffffffffffffffffffffffffffffffffffffff021916908373ffffffffffffffffffffffffffffffffffffffff16021790555050565b8280546106d790610c9d565b90600052602060002090601f0160209004810192826106f95760008555610740565b82601f1061071257805160ff1916838001178555610740565b82800160010185558215610740579182015b8281111561073f578251825591602001919060010190610724565b5b50905061074d9190610751565b5090565b5b8082111561076a576000816000905550600101610752565b5090565b6000604051905090565b600080fd5b600080fd5b600073ffffffffffffffffffffffffffffffffffffffff82169050919050565b60006107ad82610782565b9050919050565b6107bd816107a2565b81146107c857600080fd5b50565b6000813590506107da816107b4565b92915050565b6000602082840312156107f6576107f5610778565b5b6000610804848285016107cb565b91505092915050565b6000819050919050565b6108208161080d565b82525050565b600060208201905061083b6000830184610817565b92915050565b61084a816107a2565b82525050565b60006020820190506108656000830184610841565b92915050565b6000819050919050565b61087e8161086b565b811461088957600080fd5b50565b60008135905061089b81610875565b92915050565b6000602082840312156108b7576108b6610778565b5b60006108c58482850161088c565b91505092915050565b60008115159050919050565b6108e3816108ce565b82525050565b60006020820190506108fe60008301846108da565b92915050565b61090d8161080d565b811461091857600080fd5b50565b60008135905061092a81610904565b92915050565b60006020828403121561094657610945610778565b5b60006109548482850161091b565b91505092915050565b6109668161086b565b82525050565b600081519050919050565b600082825260208201905092915050565b60005b838110156109a657808201518184015260208101905061098b565b838111156109b5576000848401525b50505050565b6000601f19601f8301169050919050565b60006109d78261096c565b6109e18185610977565b93506109f1818560208601610988565b6109fa816109bb565b840191505092915050565b600060c082019050610a1a6000830189610817565b610a27602083018861095d565b610a34604083018761095d565b610a41606083018661095d565b8181036080830152610a5381856109cc565b905081810360a0830152610a6781846109cc565b9050979650505050505050565b600080fd5b600080fd5b7f4e487b7100000000000000000000000000000000000000000000000000000000600052604160045260246000fd5b610ab6826109bb565b810181811067ffffffffffffffff82111715610ad557610ad4610a7e565b5b80604052505050565b6000610ae861076e565b9050610af48282610aad565b919050565b600067ffffffffffffffff821115610b1457610b13610a7e565b5b610b1d826109bb565b9050602081019050919050565b82818337600083830152505050565b6000610b4c610b4784610af9565b610ade565b905082815260208101848484011115610b6857610b67610a79565b5b610b73848285610b2a565b509392505050565b600082601f830112610b9057610b8f610a74565b5b8135610ba0848260208601610b39565b91505092915050565b60008060008060008060c08789031215610bc657610bc5610778565b5b6000610bd489828a016107cb565b9650506020610be589828a0161088c565b9550506040610bf689828a0161088c565b9450506060610c0789828a0161088c565b935050608087013567ffffffffffffffff811115610c2857610c2761077d565b5b610c3489828a01610b7b565b92505060a087013567ffffffffffffffff811115610c5557610c5461077d565b5b610c6189828a01610b7b565b9150509295509295509295565b7f4e487b7100000000000000000000000000000000000000000000000000000000600052602260045260246000fd5b60006002820490506001821680610cb557607f821691505b60208210811415610cc957610cc8610c6e565b5b50919050565b7f4e487b7100000000000000000000000000000000000000000000000000000000600052601160045260246000fd5b6000610d098261080d565b91507fffffffffffffffffffffffffffffffffffffffffffffffffffffffffffffffff821415610d3c57610d3b610ccf565b5b60018201905091905056fea2646970667358221220a4fa677b347e0be349dfb6223d10b547e8f5d721bbfed696b22421ae355db31e64736f6c63430008090033",
  "immutableReferences": {},
  "source": "//SPDX-License-Identifier:MIT\r\n\r\npragma solidity ^0.8.9;\r\n\r\nimport '../helpers/BaseStorage.sol';\r\n\r\ncontract  UserStorage is BaseStorage{\r\n\r\n    struct Profile{\r\n        uint id;\r\n        bytes32 username;\r\n        bytes32 firstName;\r\n        bytes32 lastName;\r\n        string bio;\r\n        string gravatarEmail;\r\n    }\r\n\r\n    mapping(uint => Profile) public profiles;\r\n    mapping (address => uint) public addresses; \r\n    mapping (bytes32 => uint) public usernames;\r\n    uint latestUserId = 0;\r\n\r\n    function mapSetter (bytes32 name) public returns(bool){\r\n\r\n    }\r\n\r\n\r\n    function createUser(\r\n    address _address,\r\n    bytes32 _username,\r\n    bytes32 _firstName,\r\n    bytes32 _lastName,\r\n    string memory _bio,\r\n    string memory _gravatarEmail\r\n  ) public onlyController returns(uint) {\r\n    latestUserId++;  \r\n\r\n    profiles[latestUserId] = Profile(\r\n      latestUserId, \r\n      _username,\r\n      _firstName,\r\n      _lastName,\r\n      _bio,\r\n      _gravatarEmail\r\n    );\r\n\r\n    addresses[_address] = latestUserId;\r\n    usernames[_username] = latestUserId;\r\n\r\n    return latestUserId;\r\n  }\r\n}",
  "sourcePath": "D:\\tweet-chain\\contracts\\users\\UserStorage.sol",
  "compiler": {
    "name": "solc",
    "version": "0.8.9+commit.e5eed63a.Emscripten.clang"
  },
  "schemaVersion": "3.4.3",
  "updatedAt": "2022-04-28T12:02:27.459Z",
  "devdoc": {
    "kind": "dev",
    "methods": {},
    "version": 1
  },
  "userdoc": {
    "kind": "user",
    "methods": {},
    "version": 1
  }
}