{
  "contractName": "UserStorage",
  "abi": [
    {
      "inputs": [
        {
          "internalType": "address",
          "name": "",
          "type": "address"
        }
      ],
      "name": "addresses",
      "outputs": [
        {
          "internalType": "uint256",
          "name": "",
          "type": "uint256"
        }
      ],
      "stateMutability": "view",
      "type": "function"
    },
    {
      "inputs": [],
      "name": "controllerAddr",
      "outputs": [
        {
          "internalType": "address",
          "name": "",
          "type": "address"
        }
      ],
      "stateMutability": "view",
      "type": "function"
    },
    {
      "inputs": [],
      "name": "ownerAddr",
      "outputs": [
        {
          "internalType": "address",
          "name": "",
          "type": "address"
        }
      ],
      "stateMutability": "view",
      "type": "function"
    },
    {
      "inputs": [
        {
          "internalType": "uint256",
          "name": "",
          "type": "uint256"
        }
      ],
      "name": "profiles",
      "outputs": [
        {
          "internalType": "uint256",
          "name": "id",
          "type": "uint256"
        },
        {
          "internalType": "string",
          "name": "username",
          "type": "string"
        },
        {
          "internalType": "bytes32",
          "name": "firstName",
          "type": "bytes32"
        },
        {
          "internalType": "bytes32",
          "name": "lastName",
          "type": "bytes32"
        },
        {
          "internalType": "string",
          "name": "bio",
          "type": "string"
        },
        {
          "internalType": "string",
          "name": "gravatarEmail",
          "type": "string"
        }
      ],
      "stateMutability": "view",
      "type": "function"
    },
    {
      "inputs": [
        {
          "internalType": "address",
          "name": "_controllerAddr",
          "type": "address"
        }
      ],
      "name": "setControllerAddr",
      "outputs": [],
      "stateMutability": "nonpayable",
      "type": "function"
    },
    {
      "inputs": [
        {
          "internalType": "address",
          "name": "_newOwner",
          "type": "address"
        }
      ],
      "name": "transferOwnership",
      "outputs": [],
      "stateMutability": "nonpayable",
      "type": "function"
    },
    {
      "inputs": [
        {
          "internalType": "string",
          "name": "",
          "type": "string"
        }
      ],
      "name": "usernames",
      "outputs": [
        {
          "internalType": "uint256",
          "name": "",
          "type": "uint256"
        }
      ],
      "stateMutability": "view",
      "type": "function"
    },
    {
      "inputs": [
        {
          "internalType": "address",
          "name": "_address",
          "type": "address"
        },
        {
          "internalType": "string",
          "name": "_username",
          "type": "string"
        },
        {
          "internalType": "bytes32",
          "name": "_firstName",
          "type": "bytes32"
        },
        {
          "internalType": "bytes32",
          "name": "_lastName",
          "type": "bytes32"
        },
        {
          "internalType": "string",
          "name": "_bio",
          "type": "string"
        },
        {
          "internalType": "string",
          "name": "_gravatarEmail",
          "type": "string"
        }
      ],
      "name": "createUser",
      "outputs": [
        {
          "internalType": "uint256",
          "name": "",
          "type": "uint256"
        }
      ],
      "stateMutability": "nonpayable",
      "type": "function"
    }
  ],
  "bytecode": "0x6080604052600060055534801561001557600080fd5b50336000806101000a81548173ffffffffffffffffffffffffffffffffffffffff021916908373ffffffffffffffffffffffffffffffffffffffff160217905550610e53806100656000396000f3fe608060405234801561001057600080fd5b50600436106100885760003560e01c8063bb863c0c1161005b578063bb863c0c14610127578063c36fe3d614610157578063ee255c571461018c578063f2fde38b146101aa57610088565b80636981fa7d1461008d57806382d38954146100a95780639c675eaa146100d9578063aaee301f146100f7575b600080fd5b6100a760048036038101906100a2919061085a565b6101c6565b005b6100c360048036038101906100be919061085a565b610262565b6040516100d091906108a0565b60405180910390f35b6100e161027a565b6040516100ee91906108ca565b60405180910390f35b610111600480360381019061010c9190610a2b565b61029e565b60405161011e91906108a0565b60405180910390f35b610141600480360381019061013c9190610aaa565b6102cc565b60405161014e91906108a0565b60405180910390f35b610171600480360381019061016c9190610bb7565b610476565b60405161018396959493929190610c7b565b60405180910390f35b61019461064a565b6040516101a191906108ca565b60405180910390f35b6101c460048036038101906101bf919061085a565b610670565b005b60008054906101000a900473ffffffffffffffffffffffffffffffffffffffff1673ffffffffffffffffffffffffffffffffffffffff163373ffffffffffffffffffffffffffffffffffffffff161461021e57600080fd5b80600160006101000a81548173ffffffffffffffffffffffffffffffffffffffff021916908373ffffffffffffffffffffffffffffffffffffffff16021790555050565b60036020528060005260406000206000915090505481565b60008054906101000a900473ffffffffffffffffffffffffffffffffffffffff1681565b6004818051602081018201805184825260208301602085012081835280955050505050506000915090505481565b6000600160009054906101000a900473ffffffffffffffffffffffffffffffffffffffff1673ffffffffffffffffffffffffffffffffffffffff163373ffffffffffffffffffffffffffffffffffffffff161461032857600080fd5b6005600081548092919061033b90610d20565b91905055506040518060c001604052806005548152602001878152602001868152602001858152602001848152602001838152506002600060055481526020019081526020016000206000820151816000015560208201518160010190805190602001906103aa929190610745565b50604082015181600201556060820151816003015560808201518160040190805190602001906103db929190610745565b5060a08201518160050190805190602001906103f8929190610745565b50905050600554600360008973ffffffffffffffffffffffffffffffffffffffff1673ffffffffffffffffffffffffffffffffffffffff168152602001908152602001600020819055506005546004876040516104559190610da5565b90815260200160405180910390208190555060055490509695505050505050565b600260205280600052604060002060009150905080600001549080600101805461049f90610deb565b80601f01602080910402602001604051908101604052809291908181526020018280546104cb90610deb565b80156105185780601f106104ed57610100808354040283529160200191610518565b820191906000526020600020905b8154815290600101906020018083116104fb57829003601f168201915b50505050509080600201549080600301549080600401805461053990610deb565b80601f016020809104026020016040519081016040528092919081815260200182805461056590610deb565b80156105b25780601f10610587576101008083540402835291602001916105b2565b820191906000526020600020905b81548152906001019060200180831161059557829003601f168201915b5050505050908060050180546105c790610deb565b80601f01602080910402602001604051908101604052809291908181526020018280546105f390610deb565b80156106405780601f1061061557610100808354040283529160200191610640565b820191906000526020600020905b81548152906001019060200180831161062357829003601f168201915b5050505050905086565b600160009054906101000a900473ffffffffffffffffffffffffffffffffffffffff1681565b60008054906101000a900473ffffffffffffffffffffffffffffffffffffffff1673ffffffffffffffffffffffffffffffffffffffff163373ffffffffffffffffffffffffffffffffffffffff16146106c857600080fd5b600073ffffffffffffffffffffffffffffffffffffffff168173ffffffffffffffffffffffffffffffffffffffff16141561070257600080fd5b806000806101000a81548173ffffffffffffffffffffffffffffffffffffffff021916908373ffffffffffffffffffffffffffffffffffffffff16021790555050565b82805461075190610deb565b90600052602060002090601f01602090048101928261077357600085556107ba565b82601f1061078c57805160ff19168380011785556107ba565b828001600101855582156107ba579182015b828111156107b957825182559160200191906001019061079e565b5b5090506107c791906107cb565b5090565b5b808211156107e45760008160009055506001016107cc565b5090565b6000604051905090565b600080fd5b600080fd5b600073ffffffffffffffffffffffffffffffffffffffff82169050919050565b6000610827826107fc565b9050919050565b6108378161081c565b811461084257600080fd5b50565b6000813590506108548161082e565b92915050565b6000602082840312156108705761086f6107f2565b5b600061087e84828501610845565b91505092915050565b6000819050919050565b61089a81610887565b82525050565b60006020820190506108b56000830184610891565b92915050565b6108c48161081c565b82525050565b60006020820190506108df60008301846108bb565b92915050565b600080fd5b600080fd5b6000601f19601f8301169050919050565b7f4e487b7100000000000000000000000000000000000000000000000000000000600052604160045260246000fd5b610938826108ef565b810181811067ffffffffffffffff8211171561095757610956610900565b5b80604052505050565b600061096a6107e8565b9050610976828261092f565b919050565b600067ffffffffffffffff82111561099657610995610900565b5b61099f826108ef565b9050602081019050919050565b82818337600083830152505050565b60006109ce6109c98461097b565b610960565b9050828152602081018484840111156109ea576109e96108ea565b5b6109f58482856109ac565b509392505050565b600082601f830112610a1257610a116108e5565b5b8135610a228482602086016109bb565b91505092915050565b600060208284031215610a4157610a406107f2565b5b600082013567ffffffffffffffff811115610a5f57610a5e6107f7565b5b610a6b848285016109fd565b91505092915050565b6000819050919050565b610a8781610a74565b8114610a9257600080fd5b50565b600081359050610aa481610a7e565b92915050565b60008060008060008060c08789031215610ac757610ac66107f2565b5b6000610ad589828a01610845565b965050602087013567ffffffffffffffff811115610af657610af56107f7565b5b610b0289828a016109fd565b9550506040610b1389828a01610a95565b9450506060610b2489828a01610a95565b935050608087013567ffffffffffffffff811115610b4557610b446107f7565b5b610b5189828a016109fd565b92505060a087013567ffffffffffffffff811115610b7257610b716107f7565b5b610b7e89828a016109fd565b9150509295509295509295565b610b9481610887565b8114610b9f57600080fd5b50565b600081359050610bb181610b8b565b92915050565b600060208284031215610bcd57610bcc6107f2565b5b6000610bdb84828501610ba2565b91505092915050565b600081519050919050565b600082825260208201905092915050565b60005b83811015610c1e578082015181840152602081019050610c03565b83811115610c2d576000848401525b50505050565b6000610c3e82610be4565b610c488185610bef565b9350610c58818560208601610c00565b610c61816108ef565b840191505092915050565b610c7581610a74565b82525050565b600060c082019050610c906000830189610891565b8181036020830152610ca28188610c33565b9050610cb16040830187610c6c565b610cbe6060830186610c6c565b8181036080830152610cd08185610c33565b905081810360a0830152610ce48184610c33565b9050979650505050505050565b7f4e487b7100000000000000000000000000000000000000000000000000000000600052601160045260246000fd5b6000610d2b82610887565b91507fffffffffffffffffffffffffffffffffffffffffffffffffffffffffffffffff821415610d5e57610d5d610cf1565b5b600182019050919050565b600081905092915050565b6000610d7f82610be4565b610d898185610d69565b9350610d99818560208601610c00565b80840191505092915050565b6000610db18284610d74565b915081905092915050565b7f4e487b7100000000000000000000000000000000000000000000000000000000600052602260045260246000fd5b60006002820490506001821680610e0357607f821691505b60208210811415610e1757610e16610dbc565b5b5091905056fea2646970667358221220bf82414bf01a5249f67e161306de1e1440f68400f3dd28c1aefd6c1a264e355e64736f6c63430008090033",
  "immutableReferences": {},
  "source": "//SPDX-License-Identifier:MIT\r\n\r\npragma solidity ^0.8.9;\r\n\r\nimport '../helpers/BaseStorage.sol';\r\n\r\ncontract  UserStorage is BaseStorage{\r\n\r\n    struct Profile{\r\n        uint id;\r\n        string username;\r\n        bytes32 firstName;\r\n        bytes32 lastName;\r\n        string bio;\r\n        string gravatarEmail;\r\n    }\r\n\r\n    mapping(uint => Profile) public profiles;\r\n    mapping (address => uint) public addresses; \r\n    mapping (string => uint) public usernames;\r\n    uint latestUserId = 0;\r\n\r\n\r\n    function createUser(\r\n    address _address,\r\n    string memory _username,\r\n    bytes32 _firstName,\r\n    bytes32 _lastName,\r\n    string memory _bio,\r\n    string memory _gravatarEmail\r\n  ) public onlyController returns(uint) {\r\n    latestUserId++;  \r\n\r\n    profiles[latestUserId] = Profile(\r\n      latestUserId, \r\n      _username,\r\n      _firstName,\r\n      _lastName,\r\n      _bio,\r\n      _gravatarEmail\r\n    );\r\n\r\n    addresses[_address] = latestUserId;\r\n    usernames[_username] = latestUserId;\r\n\r\n    return latestUserId;\r\n  }\r\n}",
  "sourcePath": "D:\\tweet-chain\\contracts\\users\\UserStorage.sol",
  "compiler": {
    "name": "solc",
    "version": "0.8.9+commit.e5eed63a.Emscripten.clang"
  },
  "schemaVersion": "3.4.3",
  "updatedAt": "2022-04-28T10:34:45.590Z",
  "devdoc": {
    "kind": "dev",
    "methods": {},
    "version": 1
  },
  "userdoc": {
    "kind": "user",
    "methods": {},
    "version": 1
  }
}