{
  "contractName": "UserController",
  "abi": [
    {
      "inputs": [],
      "name": "ownerAddr",
      "outputs": [
        {
          "internalType": "address",
          "name": "",
          "type": "address"
        }
      ],
      "stateMutability": "view",
      "type": "function"
    },
    {
      "inputs": [
        {
          "internalType": "address",
          "name": "_managerAddr",
          "type": "address"
        }
      ],
      "name": "setManagerAddr",
      "outputs": [],
      "stateMutability": "nonpayable",
      "type": "function"
    },
    {
      "inputs": [
        {
          "internalType": "address",
          "name": "_newOwner",
          "type": "address"
        }
      ],
      "name": "transferOwnership",
      "outputs": [],
      "stateMutability": "nonpayable",
      "type": "function"
    },
    {
      "inputs": [
        {
          "internalType": "bytes32",
          "name": "_username",
          "type": "bytes32"
        },
        {
          "internalType": "bytes32",
          "name": "_lastName",
          "type": "bytes32"
        },
        {
          "internalType": "bytes32",
          "name": "_firstName",
          "type": "bytes32"
        },
        {
          "internalType": "string",
          "name": "_bio",
          "type": "string"
        },
        {
          "internalType": "string",
          "name": "_gravatarEmail",
          "type": "string"
        }
      ],
      "name": "createUser",
      "outputs": [
        {
          "internalType": "uint256",
          "name": "",
          "type": "uint256"
        }
      ],
      "stateMutability": "nonpayable",
      "type": "function"
    }
  ],
  "bytecode": "0x608060405234801561001057600080fd5b50336000806101000a81548173ffffffffffffffffffffffffffffffffffffffff021916908373ffffffffffffffffffffffffffffffffffffffff160217905550610a7b806100606000396000f3fe608060405234801561001057600080fd5b506004361061004c5760003560e01c80637978b231146100515780639c675eaa1461006d578063f2fde38b1461008b578063f901175b146100a7575b600080fd5b61006b60048036038101906100669190610563565b6100d7565b005b610075610173565b604051610082919061059f565b60405180910390f35b6100a560048036038101906100a09190610563565b610197565b005b6100c160048036038101906100bc9190610736565b61026c565b6040516100ce9190610802565b60405180910390f35b60008054906101000a900473ffffffffffffffffffffffffffffffffffffffff1673ffffffffffffffffffffffffffffffffffffffff163373ffffffffffffffffffffffffffffffffffffffff161461012f57600080fd5b80600160006101000a81548173ffffffffffffffffffffffffffffffffffffffff021916908373ffffffffffffffffffffffffffffffffffffffff16021790555050565b60008054906101000a900473ffffffffffffffffffffffffffffffffffffffff1681565b60008054906101000a900473ffffffffffffffffffffffffffffffffffffffff1673ffffffffffffffffffffffffffffffffffffffff163373ffffffffffffffffffffffffffffffffffffffff16146101ef57600080fd5b600073ffffffffffffffffffffffffffffffffffffffff168173ffffffffffffffffffffffffffffffffffffffff16141561022957600080fd5b806000806101000a81548173ffffffffffffffffffffffffffffffffffffffff021916908373ffffffffffffffffffffffffffffffffffffffff16021790555050565b600080600160009054906101000a900473ffffffffffffffffffffffffffffffffffffffff16905060008173ffffffffffffffffffffffffffffffffffffffff1663bf40fac16040518163ffffffff1660e01b81526004016102cd9061087a565b60206040518083038186803b1580156102e557600080fd5b505afa1580156102f9573d6000803e3d6000fd5b505050506040513d601f19601f8201168201806040525081019061031d91906108af565b9050600081905060008173ffffffffffffffffffffffffffffffffffffffff166382d38954336040518263ffffffff1660e01b815260040161035f919061059f565b60206040518083038186803b15801561037757600080fd5b505afa15801561038b573d6000803e3d6000fd5b505050506040513d601f19601f820116820180604052508101906103af9190610908565b146103b957600080fd5b60008173ffffffffffffffffffffffffffffffffffffffff1663ec4d88d78b6040518263ffffffff1660e01b81526004016103f49190610944565b60206040518083038186803b15801561040c57600080fd5b505afa158015610420573d6000803e3d6000fd5b505050506040513d601f19601f820116820180604052508101906104449190610908565b1461044e57600080fd5b8073ffffffffffffffffffffffffffffffffffffffff1663d399e63d338b8a8c8b8b6040518763ffffffff1660e01b8152600401610491969594939291906109d6565b602060405180830381600087803b1580156104ab57600080fd5b505af11580156104bf573d6000803e3d6000fd5b505050506040513d601f19601f820116820180604052508101906104e39190610908565b935050505095945050505050565b6000604051905090565b600080fd5b600080fd5b600073ffffffffffffffffffffffffffffffffffffffff82169050919050565b600061053082610505565b9050919050565b61054081610525565b811461054b57600080fd5b50565b60008135905061055d81610537565b92915050565b600060208284031215610579576105786104fb565b5b60006105878482850161054e565b91505092915050565b61059981610525565b82525050565b60006020820190506105b46000830184610590565b92915050565b6000819050919050565b6105cd816105ba565b81146105d857600080fd5b50565b6000813590506105ea816105c4565b92915050565b600080fd5b600080fd5b6000601f19601f8301169050919050565b7f4e487b7100000000000000000000000000000000000000000000000000000000600052604160045260246000fd5b610643826105fa565b810181811067ffffffffffffffff821117156106625761066161060b565b5b80604052505050565b60006106756104f1565b9050610681828261063a565b919050565b600067ffffffffffffffff8211156106a1576106a061060b565b5b6106aa826105fa565b9050602081019050919050565b82818337600083830152505050565b60006106d96106d484610686565b61066b565b9050828152602081018484840111156106f5576106f46105f5565b5b6107008482856106b7565b509392505050565b600082601f83011261071d5761071c6105f0565b5b813561072d8482602086016106c6565b91505092915050565b600080600080600060a08688031215610752576107516104fb565b5b6000610760888289016105db565b9550506020610771888289016105db565b9450506040610782888289016105db565b935050606086013567ffffffffffffffff8111156107a3576107a2610500565b5b6107af88828901610708565b925050608086013567ffffffffffffffff8111156107d0576107cf610500565b5b6107dc88828901610708565b9150509295509295909350565b6000819050919050565b6107fc816107e9565b82525050565b600060208201905061081760008301846107f3565b92915050565b600082825260208201905092915050565b7f5573657253746f72616765000000000000000000000000000000000000000000600082015250565b6000610864600b8361081d565b915061086f8261082e565b602082019050919050565b6000602082019050818103600083015261089381610857565b9050919050565b6000815190506108a981610537565b92915050565b6000602082840312156108c5576108c46104fb565b5b60006108d38482850161089a565b91505092915050565b6108e5816107e9565b81146108f057600080fd5b50565b600081519050610902816108dc565b92915050565b60006020828403121561091e5761091d6104fb565b5b600061092c848285016108f3565b91505092915050565b61093e816105ba565b82525050565b60006020820190506109596000830184610935565b92915050565b600081519050919050565b60005b8381101561098857808201518184015260208101905061096d565b83811115610997576000848401525b50505050565b60006109a88261095f565b6109b2818561081d565b93506109c281856020860161096a565b6109cb816105fa565b840191505092915050565b600060c0820190506109eb6000830189610590565b6109f86020830188610935565b610a056040830187610935565b610a126060830186610935565b8181036080830152610a24818561099d565b905081810360a0830152610a38818461099d565b905097965050505050505056fea264697066735822122009adddf57f927c7a98f5e3391eb14e74a9ba9d4cd608b98c991985c2ec1ee56864736f6c63430008090033",
  "immutableReferences": {},
  "source": "//SPDX-License-Identifier:MIT\r\n\r\npragma solidity ^0.8.9;\r\n\r\nimport '../helpers/BaseController.sol';\r\nimport '../ContractManager.sol';\r\nimport './UserStorage.sol';\r\n\r\ncontract UserController is BaseController{\r\n    \r\n  function createUser(\r\n    bytes32  _username, \r\n    bytes32 _lastName,\r\n    bytes32 _firstName, \r\n    string memory _bio,\r\n    string memory _gravatarEmail\r\n  ) public returns(uint) {\r\n    ContractManager _manager = ContractManager(managerAddr);\r\n\r\n    address _userStorageAddr = _manager.getAddress(\"UserStorage\");\r\n    UserStorage _storage = UserStorage(_userStorageAddr); \r\n\r\n    require(_storage.addresses(msg.sender) == 0);\r\n    require(_storage.usernames(_username) == 0);\r\n    \r\n\r\n    return _storage.createUser(\r\n      msg.sender,\r\n      _username, \r\n      _firstName, \r\n      _lastName, \r\n      _bio,\r\n      _gravatarEmail\r\n    );\r\n  }\r\n}",
  "sourcePath": "D:\\tweet-chain\\contracts\\users\\UserController.sol",
  "compiler": {
    "name": "solc",
    "version": "0.8.9+commit.e5eed63a.Emscripten.clang"
  },
  "schemaVersion": "3.4.3",
  "updatedAt": "2022-04-28T12:02:27.445Z",
  "devdoc": {
    "kind": "dev",
    "methods": {},
    "version": 1
  },
  "userdoc": {
    "kind": "user",
    "methods": {},
    "version": 1
  }
}